:020000040000FA
:06000000020ACB02021906
:03002B0002075772
:030043000207A30E
:0300530002014E59
:03007B0002077DFC
:100083000201AD010105030101FF0F10FEFFEE2682
:1000930000000000242600000000FF000000FF0015
:1000A300010020FD000206FFFF0101CF1D0000003B
:1000B300000000000000000000000000000000102D
:1000C300202020202020202020202020202020202D
:1000D30001140070170104010000010203810207EB
:1000E300810204010000010203810207810304016C
:1000F30000000102038102078101010104000B1CBE
:10010300000000E8030000FFFFD71CE803000064C1
:10011300006400B801A0BB0D00A0BB0D00020200EB
:10012300F8FF070502070401051E02051E020A0A5D
:100133000102080803B80B02803E0102FEFFE80338
:100143000A050001FFFF010A1401E0C0E074F11287
:100153000430A2AFE433F509D2AF85A708AFA1EF0E
:100163005508FE74105E600612182F75A1EF74080F
:100173005E600812183575A1F78024EFA2E092F0B3
:10018300E508A2E082F05017906198E0F89008A982
:10019300E0C398A2D265D0335002E8F075A1FEE522
:1001A30009A2E092AF7F0202048FC0E074F212044E
:1001B30030A2AFE433FED2AF9061A4E0F8759B00A8
:1001C300E59158540860087591F712187D8023E56E
:1001D3009158541060087591EF1218838014E591BB
:1001E300A2E092F0E8A2E082F05007E0C2E0F01251
:1001F30019D99061A3E0F8E5E9585404600E121987
:10020300AF75E9FB906193E0A2E640F2EEA2E092C3
:10021300AF7F0102048FC0E074F2120430A2AFE496
:1002230033FED2AF9061A5E0F8E5BF5854046006F1
:1002330075BFFB1219F180D4C3E498F8E499F9125D
:10024300027C8026C3E49AFAE49BFBE920E7E912E7
:10025300027CE498F8E499F922C3E498F8E499F964
:1002630012027CE498F8E499F9C3E49AFAE49BFB5C
:1002730022EB20E7CFE920E7E0B90010BB0008E854
:100283008AF084F8AAF022E4FBC8FA22EB70227BFE
:1002930010C833C8C933C9335007C39AC3DBF280CC
:1002A300069A50012ADBEAC833F4C8C933F4C9FA01
:1002B3002275F008E4C833C8C933C933C99AC99B46
:1002C3005004C92AC93BD5F0ECFBC833F4C8E4C9D0
:1002D300FA22080808EAC0E0EBC0E086F0E7A4FAD7
:1002E300180986F0E7A42AFA180986F0E7A42AFA7F
:1002F300180986F0E7A42AFA1986F0E7A4FBE5F0CB
:100303002AFA190886F0E7A42BFBE5F03AFA190854
:1003130086F0E7A42BFBE5F03AFA18180986F0E714
:10032300A4C5F02BFBE43AFA1908E7C5F0C6A426E6
:10033300F6E5F03BFBE43AFA1886F0E7A4F6E5F0BD
:100343000826F6E43B08F6E43A08F6D0E0FBD0E0F2
:10035300FA22E4CFC0E0E4CEC0E0E4CDC0E0E4CCD8
:10036300C0E075F020E626F608E633F608E633F635
:1003730008E633F6181818EC33FCED33FDEE33FEC4
:10038300EF33FFC3EC9709ED9709EE9709EF971940
:100393001919400FFFEC97FC09ED97FD09EE97FE45
:1003A300191906D5F0BFECF709EDF709EEF709EFD8
:1003B300F7191919D0E0FCD0E0FDD0E0FED0E0FF42
:1003C300222518C582C0E0E51934FFC583C0E0E5E6
:1003D30018C3958224F810AF088583198582188085
:1003E30008858319858218D2AFCEF0A3E520F0A348
:1003F3007808E608F0A3DEFAEFF0A3E58124FAF823
:10040300E608F0A3E608F0A3E608F0A30808E60868
:10041300F0A3E608F0A315811581D0E0FED0E0F843
:10042300158115811581E8C0E0EEC0E022C0D0251A
:1004330018C582C0E0E51934FFC583C0E0E518C3E1
:10044300958224F310AF0885831985821880088567
:100453008319858218D2AFC8F0A3E9F0A3EAF0A309
:10046300EBF0A37908E709F0A3D8FAECF0A3EDF0D9
:10047300A3EEF0A3EFF0A3D0E0F0A3D0E0F0A3D07D
:10048300E0F0A3E520F0A3E5F0F0A322851983852E
:100493001882E0C0E0A3E0F9A3E0FAA3E0FBA378AD
:1004A30008E0F608A3DFFAE0FCA3E0FDA3E0FEA367
:1004B300E0FFA3E0C0E0A3E0C0E0A3E0F5D0A3E049
:1004C300F520A3E0A3F5F010AF0885831985821802
:1004D3008008858319858218D2AFD082D083D0E07B
:1004E300F8D0E032120B5DB90003020526E4900553
:1004F30001787C79198002F0A3D8FCD9FA7A7C7B45
:100503001D90008678C979018015E493A3AD82AE6E
:10051300838A828B83F0A3AA82AB838D828E83D856
:10052300E9D9E77582CB75838774051208667582EE
:100533009F758323740012086675F0108E1A8F1B43
:1005430085821F85831E851882851983E0CEA3E0EB
:10055300CF851F82851E83EBC9EAC8EDCBECCAC3E6
:10056300E833C8E933C9EA33CAEB33CBC3EA9EF5B0
:100573001DEB9FF51CB35004AB1CAA1DEC33CCED53
:1005830033CDD5F0DAAE1AAF1B22D083D082ECC0C4
:10059300E0EDC0E0E493A3FCE493A3FDED4C600D18
:1005A300120665EC24FFFCED34FFFD80EFE493A31A
:1005B300FCE493A3FDED4C600D120702EC24FFFC59
:1005C300ED34FFFD80EFD0E0FDD0E0FCE493A3C069
:1005D300E0E493C0E022851983851882E0A3FEE05E
:1005E300A3F5207808E0A3F608DFFAE0A3FFE0A371
:1005F300C0E0E0A3C0E0E0A3C0E0E0A3C0E0E0A36C
:10060300C0E010AF08858218858319800885821899
:10061300858319D2AFD083D08202086CD083D08275
:10062300E9C0E0E493A3C386F0C5F095F0F908E4CC
:1006330093A386F0C5F095F0700BE493A3C39940A0
:1006430005E9048002A3E475F002A42582F582E59E
:10065300F03583F583D0E0F9E493A3C0E0E493C0DD
:10066300E022C0E0C3E49396087401939618400F08
:10067300E49366700808740193661870007019A3F8
:10068300A3C3E49396087401939618A3A3400DD0D3
:10069300E0D0E0D0E00205C9A3A3A3A3A3A3D0E0C5
:1006A300227404800474028000CCC0E0EDC0E0E555
:1006B30018C39CCCAD1950011D10AF068C188D19B1
:1006C30080068C188D19D2AF1207E8D0E0FDD0E078
:1006D300FC2274028000CCC0E0EDC0E0E518C39CAE
:1006E300CCAD1950011D10AF068C188D1980068CE6
:1006F300188D19D2AF1207C6D0E0FDD0E0FC22C09E
:10070300E0C0F088F0E493667008087401936618FB
:100713007000A8F0A3A3700BD0F0D0E0D0E0D0E03D
:100723000205C9A3A3D0F0D0E022D083D082CCC0ED
:10073300E0E493A360061208471470FAE493A360FD
:100743000612094E1470FAD0E0FCE493A3C0E0E46F
:1007530093C0E022C0E0C0D0E8C0E0E9C0E0A9A8AF
:10076300D2AFC2C7E9A2E7E433F8E9A2E792AFD078
:10077300E0F9D0E0F8D0D0D0E032C0E074F2120457
:1007830030A2AFE433FED2AFE58A54FC6003121704
:100793005D758A00C2EBEEA2E092AF7F0102048F87
:1007A300C0E074F2120430A2AFE433FED2AFC2C091
:1007B300E5D1A2E4500312179FEEA2E092AF7F01AE
:1007C30002048FCAC0E0E493A3C582CCC582C5836B
:1007D300CDC583F0A3C582CCC582C583CDC583DADD
:1007E300E5D0E0CA22CAC0E0E0A3C582CCC582C579
:1007F30083CDC583F0A3C582CCC582C583CDC58314
:10080300DAE6D0E0CA22C008C3E096F50808A3E000
:1008130096420808A3E096420808A3E096450870AC
:1008230001D3D00822700908080822601618181886
:10083300C6C333C608C633C608C633C608C633C6DE
:10084300D5E0EA22C0E0E493A3D39C5010E493A341
:10085300C39C400AD0E0D0E0D0E002074AA3A3A3A0
:10086300D0E022C09FF59FE473D09F22D083D08233
:10087300C09FE493C0E0740193C0E0740293F59FBA
:10088300227404800A74038006740280027401C017
:10089300E0F4041208BAD0E0120B082200C0D025FD
:1008A3001810AF08F518500C05198008F5185002F8
:1008B3000519D2AFD0D0222518F58210AF08F5184C
:1008C300400C15198008F51840021519D2AF851987
:1008D3008322BB0102E722C082C08389828A83BB51
:1008E3000003E08002E493D083D0822260160808DC
:1008F30008C6C313C618C613C618C613C618C6132C
:10090300C6D5E0EA222518F8E43519F9222518FAA4
:10091300E43519FB222518FCE43519FD22C3E0C692
:1009230096F608A3E0C696F608A3E0C696F608A3D3
:10093300E0C696F622251810AF08F518400C1519D5
:100943008008F51840021519D2AF22C0E0E493A342
:100953006C7009D0E0D0E0D0E002074AA3A3D0E056
:1009630022C3E09608A3E09608A3E09608A3E096C6
:10097300A2D265D03322E066701008A3E066700A45
:1009830008A3E066700408A3E06622E76670100817
:1009930009E766700A0809E76670040809E7662232
:1009A300C3E096F008A3E096F008A3E096F008A34E
:1009B300E096F022C3E697F60809E697F60809E6FB
:1009C30097F60809E697F622C3E493960874019311
:1009D300960874029396087403939622E627F60802
:1009E30009E637F60809E637F60809E637F622700E
:1009F3000422600D18C6C333C608C633C6D5E0F457
:100A03001822E493F608740193F608740293F60827
:100A1300740393F622E657F60809E657F60809E643
:100A230057F60809E657F622E056F608A3E056F60D
:100A330008A3E056F608A3E056F622E056F008A312
:100A4300E056F008A3E056F008A3E056F022E026B3
:100A5300F608A3E036F608A3E036F608A3E036F678
:100A630022E647F60809E647F60809E647F60809C5
:100A7300E647F622E026F008A3E036F008A3E036C6
:100A8300F008A3E036F022E4C396F608E496F608ED
:100A9300E496F608E496F622C6F4C608C6F4C60839
:100AA300C6F4C608C6F4C622C3E7960809E7960843
:100AB30009E7960809E79622C3E09608A3E096089B
:100AC300A3E09608A3E0962275D00075813F7518C0
:100AD30001751905000204E7E6F008A3E6F008A390
:100AE300E6F008A3E6F022600C08C6C313C618C6D6
:100AF30013C6D5E0F422E0F608A3E0F608A3E0F677
:100B030008A3E0F622CAC0E0E6F0A308DAFAD0E0D0
:100B1300FA22E8F0A3E9F0A3EAF0A3EBF022E0F86D
:100B2300A3E0F9A3E0FAA3E0FB22ECF0A3EDF0A32A
:100B3300EEF0A3EFF022E0FCA3E0FDA3E0FEA3E0D0
:100B4300FF22EAF0A3EBF0A3ECF0A3EDF022E0FA2E
:100B5300A3E0FBA3E0FCA3E0FD22E5C754F84401B6
:100B6300F5C77901222518F582E43519F58322C2E8
:100B7300AF75D69F0200002212086FCEA2021208A0
:100B83006F52A30212086F8EA30212086F68A502A8
:100B930012086F25A90212086F39A90212086F43C0
:100BA300A90212086F4DA90212086F57A902120871
:100BB3006F70A90212086F7AA90212086FE7A902DF
:100BC30012086FF2A90212086F1AAA0212086F25FF
:100BD300AA0212086F8AAA0212086F95AA021208C3
:100BE3006FB9AA0212086FDDAA0212086F4FAB0297
:100BF30012086F98AB0212086FB4AB0212086F258C
:100C0300AC0212086F71AC0212086FBAAC02120880
:100C13006FF8AC0212086F79AD0212086F20AE02B2
:100C230012086FEFAF0212086F54B00212086F82FE
:100C3300B10212086FA8B10212086FF0B2021208D3
:100C43006F2AB60212086F28B80212086FF3B902AE
:100C530012086F8CBA0212086F8DBC0212086F4221
:100C6300BD0212086F7BBD0212086FE1BD021208BC
:100C73006FEBBD0212086F14C00212086F53C1025A
:100C830012086FAAC10212086F55C20212086F053B
:100C9300C40212086F52C50212086F72C50212080D
:100CA3006FC7C50212086FC8C60212086FF0C602EA
:100CB30012086F4FC70212086F47C80212086FBEAF
:100CC300C80212086FD1C90212086F3FCA02120884
:100CD3006F3ECB0212086F98CD0212086FC1CD028E
:100CE30012086F27CF0212086FA9D00212086F00F3
:100CF300D10212086FAED10212086F53D20212084A
:100D03006FACD20212086F6AD30212086FFCD302CF
:100D130012086F5BD40212086F9DD40212086FCEC3
:100D2300D40212086F25D60212086F3B2A0012085C
:100D33006F6D2A0012086FA62A0012086F642C0038
:100D430012086F3A2D0012086F992D0012086FAF29
:100D53002E0012086FFB2E0012086F893100120853
:100D63006F63340012086FAA350012086F42360011
:100D730012086F4E360012086F97360012086FD9AB
:100D8300370012086FCF380012086FF938001208C5
:100D93006F4F390012086FA8390012086F1B3A0011
:100DA30012086F513C0012086FD33D0012086FBE4A
:100DB3003E0012086F08400012086F4042001208FC
:100DC3006F3D450012086F4C450012086FE0450067
:100DD30012086F8B460012086FCE460012086F365A
:100DE300470012086F52470012086F81470012082C
:100DF3006FC0470012086FBB480012086F6A4900B2
:100E030012086FE74B0012086F194D0012086FF1BB
:100E13004D0012086F734E0012086FA8520012089B
:100E23006FD7520012086F32530012086F655300D8
:100E330012086FDD530012086F10540012086F710F
:100E4300540012086FC1540012086F8E5500120827
:100E53006F47560012086F0B570012086F85590031
:100E630012086FE75A0012086F385C0012086F5CB3
:100E73005D0012086F5F5D0012086F8E5D0012083F
:100E83006F865F0012086F45600012086F74600080
:100E930012086F92610012086F5A620012086F18ED
:100EA300640012086F4A640012086F8C6400120811
:100EB3006F8B650012086FFE650012086F276800CC
:100EC30012086F86680012086FDA680012086F094B
:100ED3006B0012086FEC6B0012086FA86C0012080D
:100EE3006FBC6C0012086FD06C0012086FFD6C00B1
:100EF30012086F2D6D0012086FE86E0012086FFA6A
:100F03006F0012086F4F700012086F98700012087C
:100F13006FBF700012086F87710012086F2D720087
:100F230012086FB3730012086FFA730012086F6C24
:100F3300740012086FC1750012086F6A76001208F8
:100F43006F9E760012086FB6760012086F5977000D
:100F530012086FD5790012086F7D7B0012086F9B12
:100F63007B0012086FB97B0012086F857C001208A2
:100F73006FD37F0012086F29810112086F6181010D
:100F830012086F61860112086FA7860112086FDDD0
:100F9300870112086F42880112086FB7890112088E
:100FA3006FC18C0112086FEA8D0112086FFD970162
:100FB30012086F8D980112086F779B0112086F84D6
:100FC3009C0112086FE79C0112086F2F9E01120803
:100FD3006F9DA00112086F2FA20112086FBCA2011E
:100FE30012086FDBA30112086F68A40112086F7265
:100FF300A40112086F9AA40112086F3AA5011208FE
:101003006F25A60112086FF2A60112086F0FA70140
:1010130012086F38A70112086F65A70112086FAC99
:10102300A90112086F7BAA0112086FBAAA0112085C
:101033006F3CAB0112086FDDAB0112086F0FAC01FF
:1010430012086F56AC0112086F89AC0112086FCDFC
:10105300AC0112086F1CAD0112086F21AD0112081B
:101063006F7DAD0112086FC1AD0112086F9BAE0118
:1010730012086F00AF0112086F66AF0112086FE12B
:10108300AF0112086F49B30112086F4CB401120883
:101093006FCAB50112086FE0B80112086F82B90177
:1010A30012086FCBBB0112086F86BC0112086FC513
:1010B300BC0112086F9DBE0112086FBABE0112086F
:1010C3006FC3BE0112086FCCBE0112086FD7BE01F9
:1010D30012086FF6BE0112086F9AC00112086FF76B
:1010E300C00112086F01C10112086F0BC101120880
:1010F3006F6AC10112086FB4C10112086FB5C20152
:1011030012086F0CC30112086F1DC40112086F6629
:10111300C40112086F20C50112086F37C6011208F7
:101123006F0CC70112086F53C80112086F57C9012A
:1011330012086F50CA0112086F68CA0112086F9F24
:10114300CA0112086FA9CA0112086FB4CA011208B2
:101153006FD2CA0112086F1ACB0112086F78CB0144
:1011630012086F9FCB0112086FB1CB0112086F6693
:10117300CC0112086F9FCC0112086FC1CD01120878
:101183006F14CE0112086FFACE0112086F21CF013E
:1011930012086F91CF0112086F0DD00112086F6909
:1011A300D10112086F90D20112086F52D3011208B5
:1011B3006F20D40112086FDED40112086FC6D50167
:1011C30012086F70D60112086FD8D60112086F8DFE
:1011D300D70112086FE9D70112086F41D80112082D
:1011E3006F07D90112086F2AD90112086FE5D901D7
:1011F30012086F07DA0112086F68DA0112086F9894
:10120300DC0112086F91DD0112086F3DDE01120847
:101213006F5EE00112086FA7E00112086FF2E001B0
:1012230012086F4EE10112086FACE10112086FD092
:10123300E10112086FF4E10112086F29E2011208BB
:101243006F51E20112086F96E20112086FEAE201A0
:1012530012086F43E30112086F3DE40112086FDBCC
:10126300E50112086F20E60112086F49E601120832
:101273006FD2E60112086F45E70112086F53E701C9
:1012830012086F77E70112086FCDE70112086FE8C4
:10129300E70112086FA3E80112086FCFE8011208F3
:1012A3006F12E90112086F75E90112086F83EB01F0
:1012B30012086FAFEB0112086F6AEC0112086F4E50
:1012C300ED0112086FE2ED0112086FF1B304120889
:1012D3006F29B40412086F4AB40412086F8CB40463
:1012E30012086FF0B40412086FFAB40412086F0AFC
:1012F300B50412086F41B50412086FEAB804120866
:101303006FB2BA0412086F96BC0412086F38BD049A
:1013130012086FC2BD0412086F50800312086FF9E0
:10132300800312086FD8810312086FE48203120846
:101333006F04830312086F26840312086FD6850394
:1013430012086F43860312086F14870312086F1A7B
:10135300880312086F92880312086FCD880312085E
:101363006F26890312086F61890312086FAA890324
:1013730012086F3E8A0312086FD48A0312086FA9FA
:101383008B0312086F7C8C0312086F0A8D031208FB
:101393006F308D0312086F5D8D0312086F8E8D03FE
:1013A30012086F5B8E0312086F6B8E0312086FBEF9
:1013B3008E0312086FCB8E0312086FD88E031208A8
:1013C3006FE18E0312086F458F0312086FA38F031B
:1013D30012086FEE8F0312086F09900312086F3023
:1013E300900312086F4D900312086F59900312086F
:1013F3006FEA910312086F03920312086F7F92033F
:1014030012086F92920312086FA2920312086F469A
:10141300930312086FB2940312086FC59503120861
:101423006F65960312086F6F960312086FEE9603AB
:1014330012086FFF960312086F3E970312086F6C32
:10144300970312086F39980312086F9098031208D4
:101453006FC9980312086F1F990312086F3D990310
:1014630012086F8B990312086F569A0312086FA420
:101473009A0312086FF19A0312086F749B03120800
:101483006F9E9B0312086FD49B0312086FE39B03A9
:1014930012086F429C0312086FBA9C0312086FFB79
:1014A3009C0312086F4B9D0312086F769D0312086D
:1014B3006F909D0312086FAA9D0312086F7F9E030E
:1014C30012086F899E0312086FC49E0312086FD41B
:1014D3009E0312086F259F0312086F399F0312089A
:1014E3006F5BA00312086F70A00312086F03A103C0
:1014F30012086F77A10312086F1CA20312086F274B
:10150300A20312086F8AA30312086FA6A30312088B
:101513006FF2A30312086F60A40312086F92A4036F
:1015230012086FACA40312086F0CA50312086FAB6B
:10153300A50312086FF6A50312086F49A803120842
:101543006FE1A80312086F58A90312086FB5AB0324
:1015530012086FCDAB0312086FD0AB0312086FDC18
:10156300AB0312086FF0AB0312086FF8AB0312085A
:101573006F2FAC0312086F23AD0312086FADAD03D9
:1015830012086F2FAE0312086FAFAE0312086F86F7
:10159300AF0312086FA8AF0312086F41B00312081C
:1015A3006F9EB00312086FA1B00312086F10B1034E
:1015B30012086F5CB20312086F6FB30312086FFA5D
:1015C300B30312086F0DB50312086FD4B5031208E5
:1015D3006F05B60312086F2BB60312086F34B603F8
:1015E30012086F63B60312086F13B70312086FC3B1
:1015F300B70312086F36B80312086FD9B80312087D
:101603006F4CB90312086F8BB90312086FD4B90377
:1016130012086F12A90412086F7FA90412086FCB76
:10162300A90412086F1DAA0412086F9DAA041208C8
:101633006F9AAC0412086FCAAE0412086FFDB104AE
:1016430012086F2CB20412086F4AB20412086FB466
:10165300B20412086FDCB20412086F0FB30412084D
:101663006F44B30412086FA6B30412086F41F20368
:1016730012086FBDF20312086FEBF20312086F300A
:10168300F30312086F91F40312086FADF403120809
:101693006FE3F40312086F5CF50312086FAAF503F6
:1016A30012086F3AF60312086F12F70312086F63FA
:1016B300F70312086FC8F70312086F3BF803120809
:1016C3006F7FF80312086FBB9A0212086FF9F803D1
:1016D30012086F89F90312086F1AFA0312086F527E
:1016E300FA0312086F7BFA0312086FBCFA0312089D
:1016F3006F5DFC0312086F3FFD0312086F1BFE03AF
:1017030012086F04980512086F15980512086FF1F7
:101713007F0012086F69980512086FE89505120893
:101723006FF8950512086F0D960512086FA0A102B8
:1017330012086FE7910512086F6B920512086FD1BB
:10174300920512086FCB900512086FE390051208FB
:101753006F59910512086F74910512086FB49105C2
:1017630012086FAE890512086F278A0512086F02E7
:101773008B0512086FA0970512086F69DB04120826
:101783006FD6DB0412086F8EDC0412086FF8DC04DA
:1017930012086F01DE0412086F7DDF0412086FD593
:1017A300DF0412086F28E00412086F31E004120806
:1017B3006F40E00412086F53E00412086F69E004FD
:1017C30012086F72E00412086F33D60412086F5FB9
:1017D300D60412086FF5D80412086F35D90412081D
:1017E3006F71D90412086F85D90412086F9ED9044A
:1017F30012086F8FDA0412086F41DB0412086F5569
:10180300DB0412086F638B0512086F878B051208C0
:101813006FA08B0512086FDE8B0512086F148C0501
:1018230012086F478C0512086FB38C0512086FB648
:101833008C0512086FC08C0512086FCD8C05120839
:101843006F0EFD0412086F31FD0412086F7CFD0456
:1018530012086F9AFD0412086FB5FD0412086F1B7E
:10186300FE0412086F27FE0412086F84FE04120898
:101873006FA8FE0412086F6EFF0412086F7BFF044B
:1018830012086F8CFF0412086F7D960512086F957E
:10189300960512086FC1960512086FCDE004120871
:1018A3006F2BE20412086F39E20412086F4DE20451
:1018B30012086F6AE20412086F7FE20412086F9243
:1018C300E20412086F14E30412086F7AE3041208A7
:1018D3006F11E40412086FEAE40412086FFAE404D7
:1018E30012086F09E50412086F4F950512086F730C
:1018F300950512086F9B950512086FC3950512088D
:101903006F9A850512086FC1850512086FDF85057B
:1019130012086F54860512086FF4FC0112086F0D4C
:10192300FD0112086F24FD0112086F2DFD0112083D
:101933006F4BFD0112086F55FD0112086F5FFD012A
:1019430012086F72FD0112086FFCFD0112086F711E
:10195300FE0112086F9FFE0112086FF3FE011208C9
:101963006F3FFF0112086F5AFF0112086F64FF01F6
:1019730012086F8AFF0112086FEFFF0112086FEA66
:10198300930512086F0C940512086F4F98051208FF
:101993006F71BE0412086F9DBE0412086FC0BE04AF
:1019A30012086FD3BE0412086FEEBE0412086F5202
:1019B300BF0412086F80BF0412086F78C3041208B3
:1019C3006FCFC40412086F01C50412086F74C504F5
:1019D30012086F01C70412086F29C70412086F3E6B
:1019E300C70412086F4EC70412086F8EC70412088B
:1019F3006FD0C70412086FE0C70412086F3A8E0550
:101A030012086F4A8E0512086F6E8E0512086F97C3
:101A13008E0512086FC18E0512086FE58E05120838
:101A23006FFC8E0512086F2A8F0512086F4D8F0504
:101A330012086FBBFF0212086FE0F50412086FF083
:101A4300F50412086F0EF70412086F42F704120828
:101A53006F64F70412086F8CF70412086FA5F7047C
:101A630012086FE1F70412086F45F80412086F8A31
:101A7300F80412086FCFF80412086FFCF804120878
:101A83006F34F90412086FD78C0512086FF78C05B1
:101A930012086F0A8E0512086F0D8E0512086F9AD1
:101AA300940512086FD0940512086FEC9405120880
:101AB3006F2E950512086F3E950512086F33CF04FC
:101AC30012086F6DCF0412086FD6CF0412086FF59A
:101AD300CF0412086F95D00412086F9ED004120829
:101AE3006FEFD00412086F18D10412086F25D104C8
:101AF30012086F96D10412086F24D20412086F7271
:101B0300D20412086FA8D20412086F09D304120872
:101B13006F31D30412086FA8D30412086F04D404DE
:101B230012086F47D40412086F84D40412086F9606
:101B3300D40412086FA8D40412086FC7D40412087F
:101B43006FD0D40412086F9ED50412086FDED5043B
:101B530012086F07D60412086F858F0512086F02EB
:101B6300970512086F55830512086F8B83051208BA
:101B73006FDA830512086F33850512086FE9940441
:101B830012086F1A960412086F56960412086F0B08
:101B9300980412086F35980412086FAE9A0412085D
:101BA3006FEE9A0412086F839C0412086F229D043F
:101BB30012086F7A9D0412086F009E0412086F3892
:101BC3009E0412086F7A9E0412086FE79F0412089E
:101BD3006F67A10412086FACA30412086FDAA304A1
:101BE30012086F06A40412086F0FA40412086F658D
:101BF300A40412086FF5A40412086F33A804120892
:101C03006FB5A80412086F2F980512086F45980541
:101C130012086FE0ED0412086FF5ED0412086FA8C7
:101C2300EE0412086FE8EE0412086F01EF041208C5
:101C33006F34EF0412086F81EF0412086FB5EF04DD
:101C430012086FF7EF0412086FF6F10412086FEA37
:101C5300920512086F49930512086F8793051208BE
:101C63006FC8930512086F81D60212086F8DD602D2
:101C730012086FEFD60212086FF9D60212086F7EB0
:101C8300D70212086FBAD70212086F7BD802120864
:101C93006FE5D80212086F80D90212086F00DA02CA
:101CA30012086FAEDB0212086F77DD0212086FECC9
:101CB300DE0212086F98DF0212086F4EE402120868
:101CC3006F3AE50212086FD4E50212086FF9E502D4
:101CD30012086F95E60212086FB3E60212086FD07E
:101CE300E60212086F44E70212086F60E702120867
:101CF3006F8DE70212086F15E90212086F36E902C9
:101D030012086FB9E90212086F5FEA0212086FA6A0
:101D1300EA0212086F18EB0212086FB7EB021208FF
:101D23006F1CEC0212086F87EC0212086F3DED0284
:101D330012086FA8ED0212086FE4ED0212086F4C4F
:101D4300EE0212086FAEEF0212086F6DF002120876
:101D53006F04F10212086F7FF20212086F1CF30284
:101D630012086F81F30212086F88F50212086FA739
:101D7300F60212086FD9F60212086FBAF8021208B7
:101D83006FA7FA0212086FCFFB0212086F88F904DB
:101D930012086F47FA0412086FADFA0412086FCEE7
:101DA300FA0412086F9FFB0412086FBAFF041208AB
:101DB3006FB2E90412086FAFEA0412086FACEB04C8
:101DC30012086F7EEC0412086FDEEC0412086F99A0
:101DD300ED0412086FABED0412086F09BA03120881
:101DE3006F61BA0312086FF1BA0312086F6ABC037A
:101DF30012086F4ABD0312086F07BE0312086F1E55
:101E0300BE0312086F70BE0312086FE4BE0312080C
:101E13006F30BF0312086F43BF0312086F9CBF03E9
:101E230012086FB4BF0312086F75C20312086F0B59
:101E3300C30312086F42C30312086F8BC303120854
:101E43006F91C50312086FE1C50312086FBBC60388
:101E530012086FF4C60312086F13C70312086F5EEC
:101E6300C70312086F7EC70312086F35C803120831
:101E73006F2EC90312086F89C90312086FC9C903FA
:101E830012086F00CB0312086F7CCD0312086FA6F4
:101E9300CD0312086F47CE0312086F6CCE031208EE
:101EA3006FF0CE0312086FCFCF0312086F0DD0036C
:101EB30012086F71D00312086F25D10312086F281F
:101EC300D10312086F32D10312086F3CD1031208F9
:101ED3006F58D10312086FCAD10312086F03D203DC
:101EE30012086F1FD20312086F4BD20312086F72CE
:101EF300D20312086F96D20312086FD1D2031208CD
:101F03006F44D30312086F78D30312086FB9D30356
:101F130012086FEED30312086F0ED40312086F4B2F
:101F2300D40312086F82D40312086F85D5031208F5
:101F33006FBDD60312086FDCD60312086F529705E4
:101F430012086F6A970512086FF5FE0312086F10E7
:101F5300C80412086F5FC80412086F1DCA04120870
:101F63006FD8CB0412086F16CC0412086F0BCD0484
:101F730012086F16CE0412086F38CE0412086F824F
:101F8300CE0412086F03CF0412086F0080041208F6
:101F93006F23800412086F27810412086F70810475
:101FA30012086FD3810412086F27820412086F7816
:101FB300820412086FEE820412086F708304120801
:101FC3006FE8830412086F2E840412086F5088048C
:101FD30012086FB58A0412086F588B0412086FCB6E
:101FE3008B0412086FED8B0412086FB08D04120876
:101FF3006FD28F0412086FB1900412086F3B9104E3
:1020030012086F78920412086F42930412086F86C5
:10201300930412086F3A940412086FA3EE01120896
:102023006F49EF0112086FB5EF0112086F5AF00103
:1020330012086FB9F00112086F67F10112086F4FB0
:10204300F40112086FF3F40112086F4FF50112083F
:102053006F17F70112086FB9F70112086FE7F8015C
:1020630012086FE4F90112086F84FA0112086F99DC
:10207300FB0112086F0FD70312086F7AD7031208F8
:102083006FC2D70312086F06D80312086F61D80313
:1020930012086FBED80312086FF9D80312086F7DB8
:1020A300D90312086FD7D90312086F46DB0312084E
:1020B3006FBEDB0312086FD6DC0312086FFEDC036E
:1020C30012086F0ADE0312086F1BDE0312086F3358
:1020D300DE0312086F5CDF0312086F7FDF03120851
:1020E3006F58E00312086F7CE00312086F93E0035C
:1020F30012086FB4E00312086FD6E00312086FB042
:10210300E10312086F0AE20312086F84E303120863
:102113006FDCE30312086FFBE30312086F4DE50363
:1021230012086FCCE50312086F03E60312086F3D34
:10213300E60312086FA9E60312086F68E7031208A3
:102143006F46E90312086F46EA0312086F51EB0367
:1021530012086F63EC0312086F8BED0312086F997B
:10216300ED0312086F9EEE0312086F40EF0312088F
:102173006F86EF0312086F9BEF0312086FA3F00340
:1021830012086F44F10312086FA0F10312086F00E5
:10219300800512086FBB810512086F7A8205120849
:1021A3006FCF820512086F03F20412086F21F20445
:1021B30012086F65F20412086F8BF20412086FB2F3
:1021C300F20412086FCAF20412086FE2F204120852
:1021D3006FFAF20412086F9DF30412086FDFF30421
:1021E30012086F01F50412086F0AF50412086F1341
:1021F300F50412086F1CF50412086F26F504120883
:102203006F3AE50412086F38E90412086F46E904CF
:1022130012086F4BE90412086F3B880512086FD848
:10222300970512086F499A0212086F389A0212082A
:102233006F54990212086F70980212086F86950204
:1022430012086F43940212086FAA910212086F6575
:10225300910212086F0B910212086F6C9002120820
:102263006F17900212086F448F0212086F7E8E025E
:1022730012086F428E0212086FD58D0212086FCDBD
:102283008D0212086F428D0212086FD28C0212085F
:102293006F238C0212086F188C0212086F098C02CC
:1022A30012086FE88B0212086FB48B0212086F8852
:1022B3008B0212086F90A10212086F5A8A02120849
:1022C3006F6EA00212086F8C9E0212086F839E022B
:1022D30012086F769E0212086F799D0212086F062C
:1022E3009D0212086FEA9C0212086FCC9C0212082E
:1022F3006F4E880212086F1F880212086F0388024C
:1023030012086FA79C0212086FAD870212086F7440
:10231300870212086FEC860212086FA08602120869
:102323006FB79B0212086F59860212086F739605E6
:1023330012086F8C850212086F10850212086F68ED
:10234300840212086FC1830212086F6383021208AA
:102353006F38830212086FE9820212086FAB8202A0
:1023630012086F89820212086F66820212086F4D8B
:10237300820212086F05820212086F4F810212084F
:102383006FC3800212086F529B0212086F578002BC
:1023930012086F00800212086FD7F8030000008054
:1023A300FBE4738F000100721D870001003F1E359F
:1023B300000400041E25000200081E260002000A75
:1023C3001E270002000C1E28000100161E29000112
:1023D30000171E84000400181E860001001C1E2A1C
:1023E3000001001D1E2B0001001E1E2C00010022F7
:1023F3001E2D000800591D2E000100231E2F000171
:1024030000241E30000100251E31000100261E326B
:10241300000100611D33000100621D34000100272B
:102423001E36000100631D38000100281E3900011B
:1024330000211E830002003D1E630001006F1D6426
:102443000001001F1E65000100201E6D00010070C9
:102453001D71000800511D660001003C1E43000170
:10246300002D1E440002002E1E45000100301E46B2
:10247300000200311E47000800671D4800010033B9
:102483001E4B000100341E04000100401EA1000188
:1024930000431E37000100421E88000100411E3C1C
:1024A300000100641D3D000100291E4900020035A2
:1024B3001E67000100711D4D000200371E4E000112
:1024C30000391E4F0002003A1E3E000100661D51F6
:1024D3000001002A1E520001002B1E530001002C94
:1024E3001E54000100651D000000000000000136BD
:1024F300360101000102010001030100010401068C
:102503000605020000070100340801000F09040159
:10251300010D0100FF0E0800001702000019010061
:10252300FF1A0100011B0100FE1C0100081D02002F
:10253300001F01000120010001210200002301000E
:102543000F240200002601000127010008280200D1
:10255300FF2A0100072B0102402C0100002D01007E
:10256300012E0100012F0100FF30010B1D31080076
:10257300003A0100083B01000F3C0100013D01004E
:10258300FF3E04000042040000460400004A040029
:10259300004E04000052040000560400005A0400D8
:1025A3000000000300200125810000000020012716
:1025B300810000040042016C800000050042015BC1
:1025C300800000060042014A800000070020012825
:1025D30081000010004203B81D000011002003DD3C
:1025E3001B000012002003C91D060000001001E0BB
:1025F3001B020400002901CA1D020401002903DE95
:102603001B020402002903CC1D000000000000008F
:1026130000000000000000000000000000000000B7
:1026230000010371030103010301030103010322F9
:10263300030203010310030003000300030003006C
:102643000300030003420300032403060300030003
:1026530003040312032503230325032303040304B1
:1026630003000300030003440300030003230300E8
:102673000365032100350381030003050300030001
:10268300030003000325032303030471040204600E
:10269300041104700402040204010402041004611E
:1026A3000400041404630473047204620443040006
:1026B30004130406040004000404041204000400C8
:1026C30004000400045104640000040004000444F2
:1026D30004000400040004000465040004350481BC
:1026E3000464000504000483040004030071003043
:1026F30001600011007000310220035004800010BB
:102703000061000000140063007300720062004364
:102713000000001300060000000000040012000087
:102723000000000000000004000400370037003CF4
:1027330002440000000000000000006500000035B6
:10274300008100000005000000830000000101710A
:1027530001010101011101010131010101010180A7
:1027630001100161013B00140063017301720162F6
:102773000143010001130106013D0135000401126B
:1027830001000100010001000104010401330133D0
:10279300013C0144013201360000010001650100E2
:1027A300013500810100010501820183010001035C
:1027B3000271023001600211027002010202020280
:1027C300028002100261023A004100630273027246
:1027D30002620243020002130238000002000204F4
:1027E3000212020002000200020002040204023785
:1027F3000037003C02440200023900000200026577
:1028030002000235028102000205028202830200F5
:102813000236000100060000000F00000000000067
:102823000000000000000003FFFF00000403FFFF9F
:102833000000FFFF0FF4010005C4040320000100A2
:10284300000B000000000000000003010F00000067
:102853000000000000000000000000000000000075
:10286300000000000000000000000000000000392C
:102873001D751D3F1D851C451D7B1D451D871D4B5E
:102883001D851C451D7B1D511D851C571D851C5D0C
:102893001D851C631D851C691D851C6F1D851C0002
:1028A3000000000000000000000000000000000025
:1028B3000000000000000000000000000000000015
:1028C30000000000000000000000000A00000002F9
:1028D30000000004000000080000001000000020B9
:1028E3000000004000000080000000000100000024
:1028F30002000000040000000800000010000000B7
:1029030020000000400000000039201300E51F1FD5
:1029130000EB1F1F80F11F010039200200A91F03D4
:1029230000AF1F0400B51F0500BB1F0600C71F36FD
:1029330000D91FFFFF000001B30F06DD0F08D70FFB
:102943000BF50F10DD0C02B90F05CB0F07BF0F0CF2
:102953009B0F0DA70F645B22FF000007ECFDFDFD3D
:10296300ECDCDCCCBCACAC9C9C8C7C7C6C6C5C5C94
:102973005C4C4C3C3C2C2C1C1C00160F00000B1513
:102983000B020002220F3300000E01030507090B9F
:102993000D0F00020406080A0C0D5A6967426565AB
:1029A300416C6C69616E63653039150AF4D4C0A556
:1029B3009582726361555049303017181921301BC5
:1029C3001D1F30303016181920231A1C1E300C0E10
:1029D300020B040B0A0708000F00034A49434E1871
:1029E3001A25050200393D3F373C3C362C442D0067
:1029F3000119161816161823030002040201010117
:102A030001090200BE040AE8030000FA065E290079
:102A1300000000E803AD297F000E00100C0A030834
:102A230008090C040015FF1E1E0905000304040118
:102A330010FF0C0500080328C082C08312166D9096
:102A430005287443F0A3740DF090052A7449F0A38C
:102A5300740DF090052C744FF0A3740DF090052EB7
:102A63007455F0A3740DF002606D74F71203C4E99A
:102A7300FE90051AE4F0EE900519F0901E31125401
:102A830009125D587C677D1D7A1D7B05121C6190C0
:102A93001E33E0900525F09005267451F0A3741DB4
:102AA30002394B74F01203C48A088B09EB5480700B
:102AB30003022BFE900519E0F9121AF38A0A8B0B15
:102AC300AE0AAF0BEE4F7003022BF51251DE707E90
:102AD300EE241F12555364137002A3E070708E82AC
:102AE3008F83A3A3E0F50EA3E0F50F900538125AE8
:102AF30059750A00750B00800D1237C2125D58120A
:102B03001B77AA0CAB0DEA4B60448A828B83E0658A
:102B13000E7004A3E0650F70288A828B83A3A3A39E
:102B2300A31251F1E50A450B8A828B83A3A3A3A3C6
:102B330060C7124728850A82850B83A3A3A3A380BA
:102B4300BB8A0A8B0B8A828B83125A5580B8EE2478
:102B53002A125553F9126AD2900538123C3DA3A3A9
:102B6300A3A3A3A3A3A3E0640270378A828B831277
:102B73005A5980078C828D83123E9DEC4D60208CC8
:102B8300828D83E06A7003A3E06B70E88C828D838F
:102B9300A3A3E06970DE901E39124B76F0804C12CD
:102BA3000D7F8E828F83E064017034EE2418122C23
:102BB3005C1208901245C51206A4EE2412122C5C76
:102BC3001208901245B912088C12656A1206A8EE13
:102BD30024171245CD12162B740A12089F800CE09D
:102BE30064027007EEFAEFFB120EB1EEFAEFFB127E
:102BF3001AE1AA08E5096480FB805BEAA2E05014AD
:102C03009005301259706006126EA51223A4E508D0
:102C1300640180395402600C901D817401F0EA64F0
:102C230002FA8032EA54086029120D798B0BEA45C7
:102C33000B701690053AE4F0A3F0A3F0A3F07A0822
:102C4300FB900519E0F9121C37E5086408FAAB0993
:102C530080047A007B0002400312525FF50A780A6F
:102C63002274F41203C48A088B098A828B83126745
:102C7300C61244BD38F583E02409FA7B00121ADB3F
:102C83008A0A8B0BAE0AAF0BEE4F7003022D288E10
:102C9300828F837402F0A3E4126FEBA3A3A3A3E8D0
:102CA300F0A3E9126AFAA3A3A3A3A3A3A3F0E508DD
:102CB3002403F8E43509125CFB1244BD3AF5831290
:102CC3003C36F0EE2409FAE43FFB8E828F83A3A304
:102CD300126401F5838882E0A2E58E828F83A3A329
:102CE300A3A3A3500474018001E4F0E5082403F8CE
:102CF30088828983125A59EA1244B13BF583122D13
:102D03002D120888EA24101265728E828F83125A5C
:102D130057121ABD740312089FEEFAEFFB900519C0
:102D2300E0F9121AE7023692A3A3E0F508A3E0F54F
:102D330009750A0078082274F21203C48A088B0901
:102D4300ECFAEDFB740E120B68E0FC12169D8A0C74
:102D53008B0DAE0CAF0DEE4F6030AC08AD09121603
:102D63008BE96026AC08AD09EEFAEFFB121691E988
:102D730070148E828F8312471CFAEFFB121685AAFA
:102D830008AB091216B57900800279B480031208E2
:102D93009F7F060205D974EE1203C474F712093833
:102DA3008A0A8B0BECFEEDFF750CB3750D00750EE7
:102DB300008002050E902A30E493F8E50EC3984094
:102DC30003022EA8AA0E7B001216D98A088B09EAE1
:102DD300450960DF8A828B83A3A3A3A3A3E0250D08
:102DE300F50DF8C3E50A98E50B940050C67C157DF4
:102DF300007900EEFAEFFB121AC985088285098370
:102E0300A3A3A3A3A3E0F8E50AC3950D2825E0F83F
:102E1300E433F9E50828F582E50939F583123A0C1C
:102E2300125D581210B58A0A8B0BAC0AAD0BEEFA81
:102E3300EFFB121C61850882850983A3E06401709E
:102E43000B1245C57401127B68A3803DAC18AD1904
:102E5300850882850983125A571216C1E9602D74B9
:102E630008120B68E0C0E01245C5D0E0F074081208
:102E73000B68E06403700CAC18AD19123C2E121CE5
:102E8300618009851882851983125D4C85088285C6
:102E93000983123FE5A3A3126FA9C0E01241F4D046
:102EA300E0F0750C00A90C740902739274F7120315
:102EB300C4E9FE8A828B83A3A3A3A3A3A3E054083C
:102EC30060338A828B83A3A3A3A3A3A3E0540260EA
:102ED300218A828B83A3A3A3A3A3A3A3A3A3E064B5
:102EE30006600F74E96E600A74CD6E600574F06E4F
:102EF3007003120D61024DEC74E81203C474F812EE
:102F030009387406120B68125230ECFEEDFF891774
:102F130075150012316D1216A98A0A8B0BEA450B3F
:102F2300700302311AEE2410125553FAA90A120B38
:102F3300E78A128B13EA4513700302311AEE240356
:102F4300F50CE43FF50DEE2406F508E43FF5097CA6
:102F5300008508821245111216AF8A108B11850C59
:102F630082850D83123162125ADA851282851383A8
:102F7300A3A3A3A3125640123162A3A3A3A312597E
:102F830080851282851383A3A3A3A3A3A312738AA9
:102F9300126F8E120888EE1244BD3F1265768512B9
:102FA30082851383A3125A51121ABD740312089F08
:102FB3007428120B68124728E512124B6835131256
:102FC3005D56742A120B68E0C0E0E5121244B13575
:102FD30013F583D0E0F07514007423120B68E0F549
:102FE300167424120B68780C120AF90230A18510AA
:102FF30082851183125A5712239985088285098382
:10300300A3EAF0A3EB123184A3A3126BBB12317EAC
:10301300A2E6500F850882850983A3A3A3A3A3E097
:10302300D2E1F0E51570668508828509831247278A
:1030330090056EE0687003A3E0697051850882858E
:103043000983A3A3A3123DCD751000781012089035
:10305300780C120884E516F510781012089074267F
:10306300120B681206A890057B1206A8790074104B
:10307300120B68126ADA120EF3740A12089F85089B
:1030830082850983A3A3A3A3A3E04405F0740125C8
:1030930014FC12316D1216AF8A108B110514E51052
:1030A3004511604EC3E514950AE4950B5044E514AD
:1030B30075F006A4F8A9F0E51228F8E51339F9E844
:1030C300240FF508E439F509850882F583E4127FB6
:1030D30088E064016003022FF1751501850882857C
:1030E300098374011231841254B3A3E8F0A3E902F3
:1030F3003008AA12AB13120BED781212088CAD161E
:103103007424120B68E0FCA917EEFAEFFB120D5BB7
:10311300740212089F803E8E828F83A3A3A3E0C014
:10312300E07403120B68D0E0F0EE2412125553C082
:10313300E07404120B68D0E0F0E50A450B700974E3
:1031430005120B6874B980077405120B68741012AA
:10315300657F120EED740812089F7F100205D9E0F7
:10316300851282851383A3A3A3228E828F83125A8F
:103173005D8E828F83A3A3A3E0F922A3126C79E06F
:1031830022127F8CA32274E81203C474F21209384A
:10319300E9851882851983F08A0C8B0D8C168D179F
:1031A3007426120B6812593EAA08FB120BDBE9F5D1
:1031B30014AA08AB09120BE1E9F515E51470030233
:1031C3003446751300800F8E828F83A3A3A3A3A31A
:1031D300E0D2E3F005131241FEE0F8E513C3984093
:1031E3000302343DE514700302343DE51375F00624
:1031F300A4F8A9F0E50828F8E50939F9E8240FFE51
:10320300E439FF8E828F83A3A3A3A3A3E0A2E040AC
:10321300C3750E008E828F83E07043125A581222B8
:103223009D8A0A8B0BA80AA90BE849603188828919
:1032330083A3A3A3A3E06401600D88828983A3A36E
:10324300A3A3E0640370178E828F83A3A3A3A3A316
:10325300E0D2E7F0750E01E51570030231D7750F63
:1032630000750A08750B00E5176003750F207C08CD
:103273007D0079007401120910121AC98E828F839E
:10328300E060449005BEE06401701CE50FD2E3F5F5
:103293000F750B101247237401120B68E8F0A3E9B2
:1032A3001248A874FF803E430F0C750A0C8E828F60
:1032B30083A3123459A3A3A3A3125D587401120B61
:1032C3006874FFF0A3801E851882851983E0600966
:1032D300E50FD2E6F50F750A0A1247237401120BA4
:1032E30068E8F0A3E9F07403120B68E50FF01244E9
:1032F300BB350DF583E0C0E07405120B68D0E0F038
:103303007406120B687401F0120910120EB7740DD3
:10331300120B68E060030234187409120B68125A26
:10332300C68E828F83A3A3A3A3F07409120B681222
:103333005219E50AF0A3E50BF01251D4E516123148
:103343007F60119005BEE0C0E07409120B68125251
:1033530009D0E0F07409120B6812420EA3A3A31262
:10336300344B241C12522A1273F212344B1251CBD7
:10337300EAF0A3EB126ED2C0E01251C1D0E0126F9B
:103383009AC0E07409120B68124D08D0E012681C51
:10339300C0E07409120B68124CFCD0E0F0740912FF
:1033A3000B68123459124CEB12359A12344B242CFD
:1033B30012522AE50C124B48350DF583E0C0E0129A
:1033C3004CE3D0E0F07409120B68125A59850C8251
:1033D300850D831234502428F582E43B125D56E5B3
:1033E3000C1244B1350DF5831273A27512007810D7
:1033F3001208881244BB350D126576EA12679B3BAF
:10340300F583125A59121ABD740312089F740112DC
:103413000910120EBD8E828F83A3A3A3A3A3E0D2B0
:10342300E0F0740D120B68E060030231CAE50EA2EE
:10343300E05002151515140231D77900AA08AB091B
:10344300120D67740E02315A125A63E822A3A3A322
:10345300A312472CEA2212472C850C82850D832266
:1034630074EE1203C474E91209388A088B09890AB5
:103473008A828B83A3A3A3A3A3A3A3A3E0F9120C20
:10348300058A0C8B0DEA450D700302352912590A82
:10349300123EB8E50A600302352E7C048508828556
:1034A3000983A3A3A3A3A3A3A3A3E0F9120C0BEE85
:1034B3004F60738E828F83A3A3A3124727740612D0
:1034C3000B681263E41247277408120B68126251E7
:1034D300C0E07410120B68D0E012359A12472774BB
:1034E3000E120B68125D587411120B68E4125ACB5A
:1034F300C8241FF582E438F583125707C413135405
:1035030003FC70027C048E828F83E0F9780C12082E
:103513008C742059FD744059F97402120910120D6C
:103523005B740212089F74170273927C08850882E9
:10353300850983A3A3A3A3A3A3A3A3E0F9120C0B5D
:103543008B0FEA450F70030234B2EE4F60D8E50AE1
:10355300F50B780B120890850C82850D83A3A3A32A
:10356300A3A3A3A3E0F50B780B1208908A828B83A5
:10357300A3A3A3E0FB8A82850F83123EA08A8285E0
:103583000F83E0FA8E828F83A3A3E0F912162574CA
:103593000212089F0234B6F0850C82850D83A3A323
:1035A300A3A3A3A3A3A32274F71203C474FA120957
:1035B30038E9FE7C017D017F0080037D000F1255F9
:1035C30048E0F8EFC3985028EF75F006A4F885F0AB
:1035D30008A908EA28F8EB39F9E82414125EE6A2F0
:1035E300E050D8540C60D4E0A2E250D17C0080CDEE
:1035F3008A828B83A3A3A3A3A3A3E0703DEDA2E0E0
:10360300400574016E70338A828B83A3A3A3A3A3A3
:10361300A37401124BB0E0C0E07403120B68D0E056
:10362300124BA8E0C0E07404120B68D0E0F07405FC
:10363300120B68EC12657F120EED7406024DE9C0A1
:1036430082C0837901120D6702606D74F41203C4A2
:10365300EA4B901D816022E4F08A088B09F50AF594
:103663000B78081208847A027B00900519E0F9129E
:103673001C2B740412089F800F7401F07A027B00E4
:10368300900519E0F9121C378005740212089F7F18
:10369300040205D974E81203C474FC1209387402D5
:1036A300120B68E4F0A3F0900538123EB885188237
:1036B300851983E4F0A3F0751401900568E0A2E393
:1036C300500302374E121C498A088B098C0A8D0B52
:1036D3008A0C8B0D8C0E8D0F90053A780C120920F5
:1036E3001237C97810790C120AAB50077A017B00A4
:1036F3000237BD850C14850D15850E16850F1778B9
:10370300147910120355A814A915901E39E0C39813
:10371300E4995003E08001E8F5141237C9780C7975
:1037230010120355E4F512F513780879101209B74E
:1037330090053A7808120ADB80111237C2125D58DD
:10374300EEFAEFFB121B77AE08AF09EE4F60638E04
:10375300828F83A3A3A3E0F8E514C3985029EE2432
:1037630003F582E43FF583A814E0C398F060217465
:1037730002120B6812489F12528AEEF0A3EF1268EE
:1037830021FEA3E0FF80C48E828F83A3A3A3E4F072
:103793008E828F8312593A85188285198312597044
:1037A3008E828F83A3A3A3A36090126AEC125D168B
:1037B300808B7402120B68125A59740402315A1224
:1037C300472C90053822901E37E0F510A3E0F51141
:1037D300E4F512F5132274F21203C48A0A8B0BE97F
:1037E300FE7A007B0090053812593E900538125935
:1037F30070601E0A850882850983A3A3A3A31259B7
:1038030070600E0AEA70010B88088909E84509709F
:10381300E3901E3A124728C3EA98EB994003023813
:10382300CC7A067B00121B718A0C8B0DA80CA90D98
:10383300E84970030238CC88828983E50AF0A3E55E
:103843000BF0EE88828983A3A3F0901E39125F5890
:10385300A3A3A3124BD8A3A3A3E4F0A3F09005382A
:10386300124730600F850882850983A3A3A3A3129F
:103873005D58801F900538125D58900568E0A2E3FB
:103883004011121C49EAF8EBF9ECFAEDFB90053A0A
:10389300120B15900568E0A2E3502E7A087B009086
:1038A3000519E0F9121C3DEA4B4C4D701C901E3774
:1038B3001279CC78081208847A087B00900519E005
:1038C300F9121C31740412089F022D94C082C08324
:1038D300E9901D82F0900532749DF0A3740DF09071
:1038E300053474AFF0A3740DF090053674C1F0A3E2
:1038F300740DF002606D74F71203C4EAFEEBFF89E6
:1039030008EE4F700312170F90053E12597070089E
:1039130090053E802212472888828983A3A3A3A30C
:10392300A3A3A3A3A312473088828983A3A3A3A33A
:10393300A3A3A3A3A370DEEEF0A3EF126BD7A3A3FD
:10394300A3E4F0126BD6E508F0024DEC74F7120312
:10395300C490053E800D8E828F83A3A3A3A3A3A34C
:10396300A3A3A3123EB8EE4F60348E828F83A3A32A
:10397300A3A3A3A3A3E06970DD8E828F83A3A3A374
:10398300A3E06A7003A3E06B70CC8E828F83A3A342
:10399300A3A3A3A3E06C70BEEEFAEFFB80047A004E
:1039A3007B00024DEC74F71203C490053E123EB83F
:1039B30090053E123454687002EB69701EE0C8240F
:1039C30009F582E438F58312472890053E125D58C5
:1039D30090053E123EB88027123EABEE4F60208E1C
:1039E300828F83A3A3A3A3A3123450687002EB694D
:1039F30070E68A828B83A3A3A3123A0C125D58123A
:103A03001B77EEFAEFFB024DECA3A3A3A3A3A31230
:103A1300421AA3A3A3A3A32274F01203C474FA1239
:103A230009388A088B098A828B83A3A3A3A3A3A340
:103A3300A3A3E060336401602F8A828B83125A59F7
:103A4300121151E97022850882850983A3A3A3A3D8
:103A5300A3A3A3A3E0640370147404120918AA08AF
:103A6300AB09120E3FE970167902023C17850882F2
:103A73008509831247287404120B68125D5812716A
:103A83007124341263CF121B718A0A8B0BAE0AAFF7
:103A93000BEE4F7003023C157C347D007900121A43
:103AA300C97402120910850882850983A3A3A3A3FD
:103AB300A3A3A3A3A3E0F91216677402120B68E091
:103AC300C0E0123C26D0E0F0EE242EF50AE43FF5E8
:103AD3000B7403120B68E0850A82850B83F079016E
:103AE300EEFAEFFB120D8B85080C85090D750E00A0
:103AF300780C1208887C1E7D00123C2E121ABD74AD
:103B03000312089FEE2432123FDB2434F8E43FF91A
:103B13008A828B83125D58E5082411F8E43509F98C
:103B2300E8FCE9FD8C828D831252252430125D520C
:103B3300123FD3127C7F1208888C828D83123C3D06
:103B4300125A59121ABD740312089F7404120B6897
:103B5300124216125D5890051A123C36A3A3A3F025
:103B630090051AE004F0121C498E828F831252745E
:103B7300242C1244E6750D00850A82850B83E078B8
:103B83000C1209F28A828B83E50CF0123C1CE50CC3
:103B930012528AE4F0E5082415127175A2E074014B
:103BA3005007120B6874018004120B68E4F0EE24D2
:103BB30029125931AA18AB1912164FE924FE8508A8
:103BC30082850983F0EE2430F8E43FF9E8FCE9FD4F
:103BD300123C4512027CE88E828F83A3A3A3A3A386
:103BE300A3A3A3F0123C4512027C8B09EA450960AA
:103BF3000F8E828F83A3A3A3A3A3A3A3A3E004F0A5
:103C0300EE24201255534408124532121B1D79002D
:103C1300800279107406024000EE242BF582E43F03
:103C2300F58322EE12679B3FF58322EE240BFAE421
:103C33003FFB22126B02A3A3A322123EA58A828B0F
:103C430083228C828D831254B7E0FA7B002274F4B2
:103C53001203C4EAFEEBFF121C498E828F831252B9
:103C630030901E2DE0F8EE242D125553C3984003D7
:103C7300023DB21244F27012EE242D125553041277
:103C83005586C0E0123C1CD0E0F0EE242A125553B6
:103C9300FC7900800109EE242E125553F8E9C398EC
:103CA3005026750801750900E978081209F21244D3
:103CB300F2550860E0E92CFC750801750900E97804
:103CC300081209F2E04508F0EE2429125553FAEEE2
:103CD3002430F582E43FF583EC8AF0A4F8ABF0E4FA
:103CE3002BF9E098F8A3E099F9C3E89AE99400EE78
:103CF30040312429125553F81244F2602C123C2609
:103D0300123DCDA3E4F0EC7047EE2420125553444A
:103D130020126255C0E0125574D0E012557EFAA30A
:103D2300E08052123C1D74FFF090055EE0FA901E95
:103D330030123DC4ABF075F064A4FAADF075F064D5
:103D4300EBA42DFB8E828F83A3A3EAF0A3EB80B5B4
:103D5300EE242012555354DF12556FECF0FAEE2483
:103D630029F582E43FF583123DC4FAABF0EE12511C
:103D7300BB3F124508FB126F72EAF0A3EB126BE62E
:103D8300C0E0EE2425F582E43FF583D0E0125241F2
:103D9300E8125980900540125970600BECF9126ECD
:103DA300A51223A4E97017123C2E120E15800F7B67
:103DB300E9123FF112161FEEFAEFFB120D970236CE
:103DC30092E0F508EA8508F0A422126B02A3F02220
:103DD30074F41203C490053E123EB8121C498A0AB9
:103DE3008B0B78FF79FF8020E0C39AFCA3E09BFD57
:103DF300C3EC98ED99500E8E828F83A3A3E0C39AF0
:103E0300F8A3E09BF9123EABEE4F605C8E828F838A
:103E1300125A59E50AC39AFAE50B9BFB8E828F83EC
:103E2300123E9FC3EA9CEB9D8E828F83A3A340B86F
:103E3300A3A3A3A3E06402701AEE240B1244F5605B
:103E4300091244D1125A59121AE1EEFAEFFB120D7C
:103E5300978007EEFAEFFB120DA37A017B00901D0A
:103E630082E0F9121B1D802974FF68700374FF69D7
:103E7300601F88088909E4F50AF50B78081208849D
:103E83007A017B00901D82E0F9121C2B7404120846
:103E93009F023692A3A3A3A3A3A3A3A3A3A3123E08
:103EA300A522E0FCA3E0FD228E828F83A3A3A3A31C
:103EB300A3A3A3A3A3E0FEA3E0FF2274F01203C411
:103EC3008A088B09ECFAEDFB890A7C01127171F9FE
:103ED300120D918A0C8B0DAE0CAF0DEE4F700302D9
:103EE3003FC7E50A6003023FC7123FD3123FE968A9
:103EF3006003023FC7123FD3E0FAEE242E1255535C
:103F0300F8EA28FAE43400FB8E828F83A3A3A3A3E9
:103F1300A3A3A3A3E0F8EA98EB9400C365D03340CE
:103F23001CE5082414127175F470127B00123FF122
:103F330012161FEEFAEFFB120D97023FC7E5082496
:103F430014127175F47042EE242B123FDB242EF809
:103F5300E43FF9E8FCE9FD7508FF7509008C828DE3
:103F630083E078081209F28A828B83E508F0123F16
:103F7300C9E508F08C828D83123FE928F0EE242DE9
:103F8300F582E43FF583E4801BE5082414F8E43567
:103F930009F9E0C0E0123FC9D0E01263F6C0E012B5
:103FA3003C1CD0E0F0121C498E828F831252741293
:103FB3003C27123FE5A31259807A01FB901D82E052
:103FC300F9121B1D803AEE242CF582E43FF583227F
:103FD300E508241312420622F8E43FF9E8FAE9FB64
:103FE300EE22126B0222E0F8EE125EFDE022EE24D6
:103FF3002212525FFAEE241412525FF92212089F22
:104003007F080205D974EC1203C474FE1209388ABE
:104013000A8B0B8C0E8D0F89108A828B83A3A3E0EE
:10402300F91216438A088B09AE08AF09EE4F7007E1
:104033007A007B000241EA7A127B00121B718A0824
:104043008B09EA450970030241E67C127D00790081
:10405300121AC9AA18AB19850A82850B83A3A3E098
:10406300F9121667E508240FF50CE43509F50D740C
:1040730001120B68E0850C82850D83F07902AA0892
:10408300AB09120D8B850E82850F8312420E1242ED
:104093002C1244A5126BB2F07512FF751300850C38
:1040A30082850D83E078121209F21273F2E512127F
:1040B3004D14126EA3E0C0E01241FED0E0F01244B2
:1040C300C7F50CE508240D1273F6E50CF0E50A12AA
:1040D30044D9850CF0A4A9F02427FAE439FB121A79
:1040E300DB8A0C8B0DAE0CAF0DE508126E7BEEF088
:1040F300A3EFF0EE4F70030241D98E828F83741ABF
:104103001259808E828F83A3A3F0A31242321242EC
:1041130016125D58AC0EAD0F126F7C121661850A34
:1041230082850B83A3A3A3E0C0E01256FDD0E0F089
:1041330090057B1252252410124226125213350B7E
:10414300125223126561E8F0A3E9124232A3A3A33A
:10415300A31252252412125D52850A82850B83A372
:10416300A3E0C0E01241F4D0E0F0E50A124B68127C
:1041730044ACE0C0E01268D2D0E0F07416120B68D1
:10418300126EABC0E012715FD0E0126BD1C0E012CF
:104193006E81D0E0126EB4C0E0126E8BD0E012528A
:1041A30036E510F07418120B68120B21EE241AF581
:1041B30082E43FF583120B15EE2427F8E43FF9EE72
:1041C30024221242261263BB1244ACE0C0E0126FF9
:1041D30084D0E0F0800DAA08AB09120D9775080092
:1041E300750900AA08AB09740212089F7F0C020527
:1041F300D9EE2414F582E43FF5832212420222E52C
:1042030008240BF582E43509F583221254B7A3A3DE
:10421300A3A32212421A22126C8E8E828F83A3A32F
:10422300A3A322F582E43FF5831252A2E50A22F00A
:10423300850A82850B83A3A3A3A3A3A32274ED12F0
:1042430003C48A0A8B0B8C108D118912750900EA3D
:104253001244D9F508900540125970600EA908124E
:104263006EA51223A4E960030244A07C0285108298
:10427300851183125A59E50A1244A5E0F9120D91EA
:104283008A0C8B0DAE0CAF0DEE4F7054850A8285F0
:104293000B83A3E0A2E040030244A07415120B6851
:1042A3001206A47417120B681206A8A912AC10AD5B
:1042B30011AA0AAB0B120DB5740612089F8A0C8B58
:1042C3000DAE0CAF0DEE4F70030244A08E828F83B0
:1042D300A3A3A3A3A3A3A3A3E508124532121B1D03
:1042E300A8088E828F83A3A3A3A3A3A3A3A3E024DD
:1042F300FFFAE434FFFBEA684B7003750901EE240F
:104303000B1244F57003024455850A82850B83A37F
:10431300E0A2E0500375080012451FE5089AE49BEC
:10432300C365D033401CE0F8EE240E12555328F039
:10433300750CFF750D00E8780C1209F2126171E536
:104343000CF0E50A1244B11244AC126FC212088891
:10435300E50A1244BD350B126576EE240D12555352
:10436300F50CE508850CF0A4FAABF01244D1126702
:10437300C92422F582E438124508FB121ABD7403DE
:1043830012089F750C011244FA780C1209F21255A7
:1043930050450CF0E509A2E05063EE240C1244E60C
:1043A3001244FA04780C1209F28A828B83E0450CDA
:1043B30012525485080C850CF0A4F8A9F01244C7D6
:1043C300FCE82CFCE439FD1244D11267C92420F522
:1043D30082E438F583ECF0A3ED12527BF4701EEE09
:1043E300240BF50CE43FF50DEE1244BD3F124511CD
:1043F300121AE7850C82850D8374FF8054121C49C1
:104403008E828F8312523090055EE0FA901E30E068
:10441300F50CEA850CF0A4FAABF0F8EBF9901E2D3D
:10442300E0F50CE8850CF0A4F8ACF0850CF0E9A4F9
:104433002CF9EA28F8EB39F9E875F064A4F8AAF046
:1044430075F064E9A42AF98E828F83A3A3E8F0A30D
:10445300E9F0A80812451FEA24FF1AEB34FFFBEA30
:10446300687001EB600EEE240C1244F56006E5095A
:10447300A2E05029E50A1244DEECF0125550C0E0E8
:10448300E50A2414F582E41244ACD0E0F0AC0AADA2
:104493000B851082851183125A59120E037F0B026A
:1044A30005D9124B481244AC22350BF58322124432
:1044B300B522240EF582E422E50C1244C122241015
:1044C300F582E422E50A1244C11244ACE022EE1262
:1044D30044C13FF583221244DEE022124B42350BE6
:1044E300F58322F8E43FF9E8FAE9FB750CFF22EEC5
:1044F300242B12525FF422750D0012525CF5F0E585
:104503000884E5F022F583E02AFAA3E03B22F58351
:10451300125A63850C82850D83E0F922EE240E1274
:10452300525FFC12525CFAEC2AFAE43400FB22F0EC
:104533007A017B00901D82E0F922C082C083901D26
:1045430082E0F9121AE702606D74F41203C48A0858
:104553008B09EB5480703BEAA2E05053120DA9E59E
:10456300086401FAAB09804B8E828F83E06401708B
:104573001A1245C51206A41245B912088CEE24126C
:104583001245CD120DBB740612089FEEFAEFFB1213
:104593001AE1901D82E0F9121AF38A0A8B0BAE0A14
:1045A300AF0BEE4F70C2AA08E5096480FB80047A62
:1045B300007B00023692EE240FF50AE43FF50B78F8
:1045C3000A22EE124B423FF5832212525FF9EE2488
:1045D30002FCE43FFDEE2419FAE43FFB2274F112DE
:1045E30003C4890A8A088B098A828B83125A591257
:1045F3000DD38B0DEA450D600579B8024688120D7F
:10460300DFE9F8902A33E493F9E8C399400479B2D7
:1046130080737A157B00121B718A0C8B0DAE0CAF65
:104623000DEE4F70047910805C8E828F83E4F0A3CB
:10463300126C74A3E50A126EC51208887C127D0001
:10464300EE2403FAE43FFB121ABD740312089F9091
:1046530005421259709005427006EEF0A3EF801FD9
:10466300E0FAA3E08003E8FAE9FB8A828B8312591C
:104673007070F3EEF8EFF98A828B83E8F0A3E9F028
:10468300120DF17900025C2EC082C0839005428036
:10469300048C828D83123EA1EC4D60288C828D8325
:1046A300A3A3E069600574FF6970E68C828D83A320
:1046B300A3A3E06A7003A3E06B70D6EC2403FAE4CF
:1046C3003DFB80047A007B0002606D74F71203C423
:1046D300E9FD74FE6D70047C0180027C009005424C
:1046E30080096D70027C0188828983125970601F72
:1046F30088828983A3A3A3E06A7003A3E06B70E7B6
:10470300ECA2E088828983A3A3E050D6F9800279E2
:10471300FE024DECEEF9024BE2A3A3125942EE2244
:104723008E828F83A312472C22126C8E22125A631D
:10473300EA4B22C082C083790090054280010912AE
:104743005A598A828B83E582458370F202606D74C5
:10475300F61203C4E4F508F509780812088C902AC8
:1047630033E49375F013A4A9F0124894121BE9746F
:104773000212089FE9FE6003120DEB02471774F65D
:104783001203C474FE120938851882851983E4F074
:10479300A3F0A818A91988088909780812088C7544
:1047A3000802750900780812088C7C007D007A42A3
:1047B3007B00121BF5740412089F024BDD74F51283
:1047C30003C474EB120938851882851983E4F0A3B6
:1047D300F0900542E0FEA3E0807E8E828F83A3A348
:1047E300E0C0E07402120B68D0E01248A8A982AAC4
:1047F3008389088A09750A0078081208887C127D63
:10480300007406120B68AA82AB83121ABD740312DA
:10481300089F740212090888088909780812088C0D
:10482300750813750900780812088C7404120B6854
:1048330012594E75F013A4F8AAF075F013E9124853
:1048430090121BF5740412089F8518828519831230
:10485300489F12708DE8FEE9FFEE4F60030247DDCB
:10486300A818A91988088909780812088C750802FC
:10487300750900780812088C7C007D007A427B0061
:10488300121BF5740412089F7415027464A42AF9A8
:10489300E82402FCE439FD7A427B0022E02401F0A3
:1048A300A3E03400221248AC221248B0221248B4CA
:1048B30022126C79A3A3A32274F41203C474EB121F
:1048C30009387E007F00A818A91988088909780883
:1048D30012088C7508028E09780812088C7C007DFA
:1048E300007A427B00121BFB740412089FE9706E6E
:1048F3008E0880587402120908880A890B780A12F4
:10490300088C750A13750B00780A12088CE5087574
:10491300F013A4F8AAF075F013E509124890121BDE
:10492300FB740412089FE9701B7403120B68AA82BC
:10493300AB837402120B68E0F9120DCDE970050E1A
:10494300EE70010F0508E5087002050985188285D8
:104953001983124728C3E50898E509994096EEFAAA
:10496300EFFB741502368F74F61203C48C828D83A9
:10497300A3A3124B9EF0EA2417F582E43BF583E0F0
:10498300C0E0124B6ED0E0F0124B4E124728124B90
:1049930058124B9EA3F0A3F0EA241FF582E43BF5E3
:1049A30083123EB8EC1252133DF583EEF0A3EFF001
:1049B300EA12616B3BF583124B7FA3A3A3A3A3A3CB
:1049C300EEF0A3EF1263F6FE8C828D83124BC87454
:1049D300035EFEC394034003024B35EE600574028D
:1049E3006E70798C828D83E0540CFE740C6E7003B0
:1049F300024A9CE0A2E4400D88828983E08C828D88
:104A030083A3124BD074086E6003024A9C124B605E
:104A13007401F08A828B83A3A3A3A3A3125C2370E4
:104A2300148C828D83E0440C124BA8A3A3124B7FFA
:104A3300EEF0A3EFF08C828D83E0A2E4401E124BD4
:104A43008D124BB9500109124B8DA3A3124BB950D0
:104A5300010988828983124B76124BC88882898325
:104A6300E0C0E0EC124B483DF583D0E0124BC88C1C
:104A7300828D83E0A2E7507888828983E0FE8C826E
:104A83008D83124BD074FC5E700C8C828D83A3E0FB
:104A930054036403701B024B35124B60E4F0740C37
:104AA3006E6003024A16124B8D124BBB508709806E
:104AB300848C828D83A3E05403603888828983E0E9
:104AC300C0E0EC124B423DF583D0E0124BD18C8217
:104AD3008D83E054036402701A88828983E0C0E006
:104AE300EC2414F582E43DF583D0E0124BD180032E
:104AF300A3E4F0EC1244B13D125D56EC2410FEE445
:104B03003DFF124B4EE0F5088E828F83E0C398255C
:104B130008F508F0EA2417F8E43BF988828983E072
:104B2300C39508C0E0124B58D0E01263F6C3950852
:104B3300500A124B58E4F0124B6EE4F0024BE2249D
:104B430013F582E4222411F582E422EA241DF5827E
:104B5300E43BF58322EC12616B3DF58322EC124BAF
:104B6300683DF58322240CF582E422EC1244C13D16
:104B7300F58322E08C828D83A3A3A322E0FEA3E02E
:104B8300FF8C828D83A3A3A3A32288828983E0F56C
:104B930008A3E0FFE5088C828D8322E4F08C828DEC
:104BA30083A3A3A322124BB0A3A3A3A322F08A82BD
:104BB3008B83A3A3A322A3A3A3A3A3A3F0A3EFF095
:104BC300E82402F822124BD8A882A98322A3124B0D
:104BD300D808A983221263FBA322740212089F7FC1
:104BE300020205D974F41203C474F31209388A0A51
:104BF3008B0BECFEEDFF8E828F83E0540CF508E007
:104C0300A2E75006E508D2E7F508E508D2E1F50882
:104C1300125C237006E508D2E4F508E0A2E550062D
:104C2300E508D2E5F5087C087D007900AA18AB19E0
:104C3300121AC97402120B68E508124D14C0E0740D
:104C430003120B68D0E012528AE50AF0A3E50BF0D9
:104C53007405120B6812657D120EB7740C120B6883
:104C6300E070787408120B681267C91263BB3812BC
:104C73006C9EC0E07408120B68124D08D0E01268F5
:104C83001CC0E07408120B68124CFCD0E0F07408EE
:104C9300120B681253D5124CEB1262551252672451
:104CA30011125553C0E0124CE3D0E0F0EE2414127D
:104CB3005553C0E07408120B681267C92435F58296
:104CC300E438F583D0E012524CC0E07408120B684C
:104CD3001251FDD0E012657F120EBD740D02368FA6
:104CE300E81251BB39F58322125A5DE8242AF58272
:104CF300E439F583EAF0A3EB221268172427F5823F
:104D0300E438F583221268172426F582E438F58304
:104D130022126C74E02274F71203C47E008A828B21
:104D230083A3A3A3A3A3A3A3A3A3E0640460030295
:104D33004DC5125ADFE06003024DC5124DC93B1247
:104D4300596E607E88828983E054037075E8240C71
:104D5300125EE6FA8C828D83A3A3E0FBA3E0CB1261
:104D63004B483BF583E06A705988828983A3A3A3E8
:104D7300A3A3124DD4E06A7003A3E06B704488824E
:104D83008983124DD4A3A3125F1324061255536AC9
:104D93007003A3E06B702B88828983A3A3E0F88C54
:104DA300828D83A3A3E0F9A3E0F5838982A3A3E023
:104DB30068600D8C828D83125705540C6404700255
:104DC3007E01EEF98023EA124DCE22240FF582E410
:104DD30022A3A3A3A3125A638C828D8322740C1281
:104DE3000B68E0F9740D12089F7F010205D974F670
:104DF3001203C474FC120938EAFEEBFFECFAEDFB74
:104E03008A828B83A3E05403601690053412597091
:104E130060597900EEFCEFFD126EA51223A4804BBE
:104E2300851882851983EEF0A3EFF07402120B68E4
:104E3300125230AC18AD197A097B0E12104F8A0842
:104E43008B09A808A909E849602188828983A3A35B
:104E5300A3A3A3A3A3A3A37406F07A0088828983E0
:104E63001267C91267A1E0F9120F8F7404024BDFB6
:104E730074F21203C474F3120938EAFEEBFF8E8254
:104E83008F83A3A3A3A3A3A3A3A3A3A3E0F50A9040
:104E93001D81E0700579BA0251B6750801750900E4
:104EA300750C00750D007C087D007900AA18AB19FC
:104EB300121AC97405120B687401125282540460E9
:104EC300127402120B68E0D2E61252825408700385
:104ED300750803E05410600674404508F508E05473
:104EE3000860227402120B68E044C01252825420FC
:104EF300600A7403120B68E0D2E080087403120B9B
:104F030068E0D2E1F0EE24151255531251E5700317
:104F1300740169700674084508F5088E828F83A3AF
:104F2300A3A3A3A3A3A3A3E070161210BB851882A7
:104F33008519831252307402120B68E0D2E2802C7E
:104F4300640F70107402120B6812529274044508B5
:104F5300F508807B8E828F83A3A3A3A3A3A3A3A31C
:104F6300E064028E828F837006126249F08060A330
:104F7300A3A3A3A3A3A3A3E06403700DAC18AD196B
:104F8300EEFAEFFB120E3F80468E828F83A3A3A31C
:104F9300A3A3A3A3A3E0640170359005BEE0601052
:104FA3007402120B68125292750910750AFF801869
:104FB3007402120B68E0440C12528A74FDF0A3745D
:104FC300FFF074044508F5088E828F831251F1EEC9
:104FD3002415125553A2E0503F7402120B68E0549B
:104FE3000C701B8E828F83125A5912211DE9700592
:104FF30079BB0251B67402120B68E0D2E5F0EE24DD
:1050030015125553A2E050107402120B68E0540CB1
:1050130064047004E0D2E5F0EE2411125553C0E0AD
:105023007404120B68D0E012657F120EB7740C1271
:105033000B68E060030251AF7408120B6812521937
:10504300E508F0A3E509F0EE2418125553C0E01269
:1050530051D4D0E0125236E0C0E07408120B68124B
:1050630067C9124B4238F583D0E012625564017070
:10507300119005BEE0C0E07408120B68125209D00B
:10508300E0F07408120B681252252417125553FAD4
:10509300E8241CF582E439F583EA125980EE2415DD
:1050A300FAE43FFB8A828B83123EA1E81251CBECD8
:1050B300F0A3ED125241E0C0E01251C1D0E0125210
:1050C3007B1251E5700374016970137408120B6845
:1050D300125AC6FAEE241D125553F9120C118E8280
:1050E3008F83A3A3A3A3A3A3A3A3A3E0C0E07408F4
:1050F300120B68124D08D0E0F07408120B68124CC2
:10510300FCE50AF07408120B6812594E2428F58244
:10511300E439F583E50CF0A3E50D125254FAA3E04C
:10512300FBE8242A12526E240F125553125267249D
:1051330017125553C0E0E82433F582E439F583D0E0
:10514300E0F01251DEC0E07408120B681251FDD07A
:10515300E0F0EE241A125553C0E07408120B6812E3
:1051630067C91251BB38F583D0E012524C122D2E71
:10517300120888126E73123EA1740B120B6812622E
:1051830027121ABD740312089FEE241512555354A7
:1051930040601290054E125970600AAA18AB19129A
:1051A3006EA51223A4AA18AB19120EBD740C120B10
:1051B30068E0F9740D022D912432F582E422E8248B
:1051C30020F582E439F58322241EF582E439F58340
:1051D30022E82412F582E439F58322EE241B1252CD
:1051E3005F225480F8A3E05401F9748068221251BD
:1051F300F522E0F50CA3E0F50D221268172434F52F
:1052030082E438F5832212681712521338F5832289
:105213002415F582E422125952124DCE39F5832218
:10522300F58312472CEE22F582E439F583EAF0A3E5
:10523300EBF022F0EE2419F582E43FF58322F0EE41
:10524300241CF582E43FF58322F0EE241312525F0F
:1052530022F0EE240D12525F22EE240FF582E43F7A
:10526300F583E022FAA3E0FBE8242CF582E439F588
:1052730083EAF0A3EBF0EE22F08A828B83E022F044
:10528300EE241512525F22F085188285198322E0DD
:10529300D2E312709112529C22851882851983E8F9
:1052A300F0A3E9F02274F71203C47E638A828B832E
:1052B300E0600C7905120F5FE9F87456C398FE900D
:1052C3000566E0600CF9120F5FE9F8EEC39824F26B
:1052D300FE024DC574F61203C474FE120938851814
:1052E30082851983125230E9FEECFAEDFB90072C0C
:1052F3001259706035A818A9198808890978081205
:10530300088C7D01740E120B68E0FCEEF990072CFB
:105313001267BD1223A4740212089F8B09EA450980
:1053230060047900800679B2800279B6024BDD749D
:10533300F71203C4E9FE900528125970601F74091F
:10534300120B68E0F5087808120890EEF99005282A
:105353001267BD1223A4740112089F800279B6025A
:105363004DEC74F71203C48908ECFEEDFF79B5E543
:1053730008245F600C14603114601224F8604580C7
:105383004E90051B1253D5E8F0A3E9801990072E20
:10539300124730603A90072E1267BD1223A48E8203
:1053A3008F83EAF0A3EBF0802490052A123EA1EC50
:1053B3004D601CEEFCEFFD90052A1267BD1223A47D
:1053C300E9F9800B900526126ADA121C6179000252
:1053D3004DEC12472C8E828F832274F71203C4E99B
:1053E30079B5245F600624F6600E80178C828D8366
:1053F300125409125D588009900526125A59121C3D
:10540300617900024DEC12472C90051B2274F212B5
:1054130003C48A088B09ECFEEDFF750A0190056E43
:10542300E065087004A3E0650970141210B58A08DA
:105433008B09AC08AD09EEFAEFFB121C61802A124E
:1054430010C18A0C8B0DE508650C7004E509650D28
:105453007009EEFAEFFB1210C7800EEEFCEFFDAA07
:1054630008AB0912235DE9F50AA90A022D9474F227
:105473001203C4EAFEEBFF8C088D09750A011210B2
:10548300B58A0C8B0DAC0CAD0DEEFAEFFB121C5B69
:10549300E96401700B90056E1254B3125D58800ECF
:1054A300AC08AD09EEFAEFFB122357E9F50A80B910
:1054B3001254B722126C8E8508828509832274F6F2
:1054C3001203C4EAFEEBFF7A0D7B00121B71EA4B59
:1054D3006070EE24241270B3F0EE24251270B3A38F
:1054E30012556F1270B9A3A3126EBA125557F0EE8C
:1054F300125EF91247288A828B83A3A3A3A3E8F041
:10550300A3E9125586125560125D58EE242EF582DA
:10551300E43FF583125557A3A3A3A3A3F0EE2433CB
:10552300125553C0E0125548D0E0126CA2125560D8
:10553300A3A3A3E8F0A3E912557EC0E0125ADFD07B
:10554300E0F0024BE2EA125EF33BF58322EE240C19
:1055530012525F22E08A828B83A3A3A322F8A3E0E3
:10556300F98A828B83A3A3A3A3A3A322F012557466
:1055730022EE2426F582E43FF58322F0EE24321254
:10558300525F22F0EE242C12525F2274F41203C4F1
:1055930074FE120938ECFEEDFFEE24161255536427
:1055A300057010EE2406FCE43FFD120E39E970038A
:1055B30002563BAC18AD19126F7C12212385188259
:1055C300851983125970606C8E828F83E064017039
:1055D30059E875F009A4F8AAF075F009E9A42AF9C5
:1055E300742828F8740B39F9E8FAE9FB8A828B836B
:1055F3007808120AF9126E957808120ABB402785BB
:1056030018828519831252251256FE1256407808C5
:10561300120AF99080AB7808120A518A828B837838
:1056230008120ADB800A79A28010EE240F125D5261
:105633007900800679A1800279C802368D1252A2C0
:10564300126E992274F01203C48A088B09ECFEEDE2
:10565300FF1256FDE4F0A3F09080CF780C120AF904
:10566300126E95780C12097970030256F5EE240E2A
:105673001255536401703678B3900565E0702A9033
:105683000597E064017022EE2411125553F9120FAD
:10569300478A088B09A808A909EE240F125D52E86E
:1056A3004960047800800278A1880A8048E0701776
:1056B300120E4BE9F50A603D8E828F83A3A3125726
:1056C300055403700E802E64027015120E4BE9F51B
:1056D3000A6022EEFCEFFDAA08AB0912214D8008F7
:1056E300E064037008120E4BE9F50A8008750AA1FD
:1056F3008003750AA3A90A024003EE124DCE3FF5BB
:105703008322A3A31265F32274F01203C474F51267
:105713000938EAFEEBFFEE240AF508E43F85088228
:10572300F58312593E12591274031209188E828F8F
:1057330083125A59120E39E970030257FA7401128F
:10574300091874031209101221237401120B681231
:10575300597070030257FAE875F009A4F8AAF075B6
:10576300F009E9A42AF9742428F8740B39F9E8FC40
:10577300E9FD12739AE4F004120B68124728E50856
:10578300124DCA3509125D568C828D83120B21127C
:10579300591E120B159080AB7808120AF98C828D72
:1057A300837808120A778C828D837808120AF9901D
:1057B30080B3780C120AF97808790C120355E50CBA
:1057C300450D450E450F702F7401120B6812594E8B
:1057D30075F009A4F8AAF075F009E9A42AF9742C64
:1057E30028F582740B39F5837401F07A007B0890F5
:1057F3001C0BE0F9121B1D125926E02406FCA3E042
:105803003400FD8E828F83125A59120E3985088215
:105813008509831259657052125A9A121C5BE970FA
:105823001D1210B58A088B09AC08AD099005261224
:105833005A59121C5BE97006120EE1E9602C8E8244
:105843008F83123E978E828F83125A59122153E906
:1058530060138E828F83A3A31267C1124DCA38F5DA
:1058630083E4F0A3F0125D2FE4F0125957600302B2
:1058730059058E828F83A3A3A3A3A3A312593A909E
:105883000565E07072900597E06401706A750A3AE5
:10589300750B00780A12088C7402120908880A89A9
:1058A3000B780A12088C7C017D007A007B001212AF
:1058B3009B740412089FE9703B12739A740112528D
:1058C3008AE0C0E0E50824111273F6D0E0F0125923
:1058D3000A743A125980900550120B2112591E1264
:1058E3000B159080AB7808120AF9900550780812CE
:1058F3000A77800312591212595770061261717494
:10590300A1F0740B024000E508240F12420622E5C1
:1059130008240F124206E4F0A3F022E50824121231
:10592300420622EE240A1259318882F58322F8E4D2
:105933003FF98808890922A3A3A3A312594222E0AD
:10594300F508A3E0F509228C828D831259522212A5
:105953006C8EE8228E828F83A3A3A3A3A3A3A3A306
:10596300A3A3126817240FF582E438F58312595262
:105973004922126817124DCE38F5837404F0A3E45C
:10598300F02274F61203C4EAFEEBFFEE240A125966
:10599300317A187B00121B71850882850983EAF02E
:1059A300A3EB125ADAE8497003025A46EEFAEFFB08
:1059B300120E571259576074125AB864018E828FAF
:1059C30083A3A3A3A3A3A37007125A8A740E8020F0
:1059D300125970700F125A9A121C5BE97006120E5C
:1059E300E1E96007125A80740D8005125A8074052C
:1059F300126CA2540364017007125A697405800B78
:105A0300900566E0C0E0125A69D0E0125ACBF583E4
:105A13008882A3E0F9120F5F8508828509831267E4
:105A2300C92417F582E438F583E9801A850882854D
:105A33000983125A59121B77850882850983E4F07A
:105A4300A380031267A8F0024BE28E828F83A3A385
:105A5300A3A3A3A3A3A3125A6322A3A3A3A3A3A3AE
:105A6300E0FAA3E0FB228E828F83A3A3A3A3A3A3C5
:105A7300A3A3125A7922A3A312618AA3228E828F2F
:105A830083A3A3A3A3A3A3A3A3A3A3126817241667
:105A9300F582E438F58322900526123EA58E828F87
:105AA30083A3A3A3A3A3A3A3A3A3A3E02406FAA36B
:105AB300E03400FB228E828F83A3A3A3A3A3A3A31B
:105AC300A3A3A3125D41E022125ACF22125AD3227A
:105AD30012717EF8A3E022125ACFF922EA124B6820
:105AE3003BF5832274F11203C48A0A8B0B8C088D55
:105AF300097A187B00121B718A0C8B0DAE0CAF0D4B
:105B0300EE4F7003025C1C1210BB8A0C8B0DA80CA9
:105B1300A90DE5082415127175687003A3E0698E59
:105B2300828F837004740280027401F0E508240DEF
:105B3300F8E43509F988828983E0FAC3E49AFA958F
